:100000000C949D070C94BA070C94BA070C94BA0789
:100010000C94BA070C94BA070C94BA070C94BA075C
:100020000C94BA070C942A160C946C160C943A177C
:100030000C9461170C94BA070C94BA070C94BA0785
:100040000C94AF150C94BA070C94BA070C94BA0729
:100050000C94BA070C94BA070C94BA070C94BA071C
:100060000C94BA070C94BA07436F6E747261737480
:1000700020004F6666004F6E004261636B6C6967DB
:10008000687420000A645420000A4B6420000A4B64
:100090006920004B7020000A5468726573686F6CA9
:1000A0006420000A4368203120000A436820312080
:1000B000000A4368203020004368203020004D6152
:1000C000782074656D7020000A4D696E2074656D2E
:1000D0007020000A4C656E67746820000A537461D2
:1000E0007274200054696D65200053657420436864
:1000F00020506964204C6364000A435243206572B7
:10010000726F72000A4E6F20726573706F6E736546
:10011000007F43002D2D002D2D007F430A002D2D43
:10012000002D2D0043616C6962726174696E670015
:100130004261636B2053656C20557020446E00440F
:10014000696D6D696E67004F6E2F4F666600417571
:10015000746F000A0F0000000000000000000000A3
:1001600000000000000000000000000000FEFE0093
:100170000000000000000019190000000000001E2F
:100180001E00001E1E000000000000000000000015
:10019000000030FEFE3030FEFE300000031F1F0363
:1001A000031F1F03000070F8D8FE9898000000009D
:1001B0000C18187F191F0F00001CB6A2F6CC606047
:1001C0002030000101000E1B111B0E00000000DC9E
:1001D0007EE6C6860C808000070F1C18191F1E1FA4
:1001E00013000000001E1E000000000000000000C0
:1001F0000000000000000000E0FC1E020000000003
:100200000000073F78400000000000021EFCE000F4
:10021000000000000040783F070000000000487820
:1002200030FE3078480000000000000100000000AF
:100230000000808080F0F080808000000101010FCC
:100240000F0101010000000000000000000000009C
:100250000000407C3C0000000000000000000000A6
:10026000000000000003030303030000000000007F
:1002700000000000000000000000001C1C00000046
:100280000000000000C0F03C0E02000020381E07F5
:10029000010000000000F0FC0EC6C60EFCF80000D5
:1002A000030F1C18181C0F070000000C06FEFE00B0
:1002B000000000001818181F1F18181800000C065E
:1002C000060686C67C380000181C1E1B1918181854
:1002D00000000C06C6C6C6C6FC3800000C1818186C
:1002E00018190F0F000080C070180EFEFE000000ED
:1002F00003030303031F1F030000FE7E666666E61A
:10030000C68000000C181818181C0F070000F0FC1D
:10031000CE6666E6CC800000070F1C18181C0F077D
:10032000000006060606E6FE3E0E000000101C0F4A
:1003300003000000000038FCC6C6C6C6FC3800003A
:100340000F0F181818180F0F000078FCCE8686CEF5
:10035000FCF80000000C1919191C0F030000000024
:1003600000E0E000000000000000001C1C00000095
:100370000000000000E0E000000000000000407C01
:100380003C00000000008080C04060602030000021
:10039000010103020606040C0000606060606060FA
:1003A000606000000606060606060606000030200D
:1003B000606040C0808000000C040606020301015A
:1003C00000000C0686C6667E1C00000000001B1B99
:1003D0000000000000E0F0389CCCCCDCF8F0000716
:1003E0001F38736766667727000000C0FC3E3EFC3E
:1003F000C0000000181F0F03030F1F180000FEFEAF
:10040000C6C6C6C6FC3C00001F1F181818181F0FD0
:100410000000F0FC0C060606060C0000030F0C188A
:100420001818180C0000FEFE0606060CFCF0000072
:100430001F1F1818180C0F030000FEFEC6C6C6C604
:10044000C60600001F1F1818181818180000FEFE16
:10045000C6C6C6C6C60600001F1F0000000000007A
:100460000000F0FC0C068686868C0000030F0C183A
:1004700019191F0F0000FEFEC0C0C0C0FEFE000024
:100480001F1F000000001F1F0000000606FEFE06E2
:10049000060000000018181F1F18180000000000B8
:1004A00000060606FEFE00000C18181818180F0F9C
:1004B0000000FEFEE0F0FC0E060200001F1F000020
:1004C000030F1E180000FEFE0000000000000000E8
:1004D0001F1F1818181818180000FEFE3EF0F03EF6
:1004E000FEFE00001F1F000101001F1F0000FEFE96
:1004F0001EF0C000FEFE00001F1F0000031E1F1F95
:100500000000F0FC0E06060EFCF00000030F1C18A5
:10051000181C0F030000FEFEC6C6C6C67C7C000089
:100520001F1F0000000000000000F0FC0E06060E79
:10053000FCF00000030F1C18183C6F070000FEFEC3
:10054000C6C6C6C6FC3C00001F1F000001031F1EDC
:100550001000387CE6C6C6C68C0000000C181818BF
:1005600018190F0F0000060606FEFE06060600001C
:100570000000001F1F0000000000FEFE0000000041
:10058000FEFE0000070F1C18181C0F07000006FED7
:10059000FC0000FCFE06000000001F1F1F1F0000E3
:1005A000001EFEE000F0F000E0FE1E001F1F1E0116
:1005B000011E1F1F0000020E3EF8F83E0E02000052
:1005C000101C1F03031F1C1000020E3E78E0E07891
:1005D0003E0E02000000001F1F0000000000060683
:1005E00086C6F67E1E0E00001C1E1F1B181818184B
:1005F00000000000FEFE02020000000000007F7FFD
:10060000404000000000020E38E0800000000000C2
:1006100000000000030E38200000000202FEFE0071
:10062000000000000040407F7F0000000010181C08
:100630000E060E1C18100000000000000000000054
:10064000000000000000000000000040404040406A
:10065000404040404000000103060400000000004C
:1006600000000000000000000000006030B0B0B0EA
:10067000F0E000000E1F1B19190D1F1F0000FEFEE9
:1006800060303070E0C000001F1F0C18181C0F07EE
:100690000000C0E07030303030600000070F1C18E0
:1006A0001818180C0000C0E070303060FEFE00002A
:1006B000070F1C18180C1F1F0000C0E0B0B0B0B02E
:1006C000E0C00000070F1D191919190D0000303086
:1006D000FCFE36363600000000001F1F0000000040
:1006E0000000C0E070303060F0F0000003376E6C46
:1006F0006C667F3F0000FEFE60303030F0E00000AE
:100700001F1F000000001F1F0000003030F7F7001F
:10071000000000001818181F1F18181800000030DB
:1007200030F7F700000000006060607F3F000000CD
:100730000000FEFE80E07030100000001F1F01036B
:10074000071E181000000606FEFE00000000000054
:1007500000000F1F181818000000F0F030F0E03013
:10076000F0E000001F1F001F1F001F1F0000F0F01F
:1007700060303030F0E000001F1F000000001F1F3D
:100780000000C0E070303070E0C00000070F1C189F
:10079000181C0F070000F0F060303070E0C000005F
:1007A0007F7F060C0C0E07030000C0E07030306045
:1007B000F0F0000003070E0C0C067F7F000000F035
:1007C000F060303030300000001F1F0000000000DB
:1007D0000000E0F0B0B0B0B0306000000C191919A2
:1007E000191B1F0E00003030FCFC303030000000C0
:1007F00000000F1F181818000000F0F000000000A3
:10080000F0F000000F1F1818180C1F1F000030F028
:10081000E00000E0F030000000010F1E1E0F01009C
:100820000070F00000C0C00000F07000071F1E0341
:10083000031E1F0700001030F0C0C0F03010000091
:1008400010181E07071E1810000010F0F08000F0AE
:10085000F03000000060637F1F0F010000003030A7
:100860003030B0F070300000181C1E1B191818181A
:100870000000000000FCFE02020000000001013E3A
:100880007E4040000000000000FEFE00000000006E
:100890000000007F7F0000000000000202FEFC005C
:1008A000000000000040407E3E010100000080C0CA
:1008B000C0C0808080C00000010000000101010074
:1008C000000000001C3622361C0000000000000062
:1008D0000000000000060E00000000000000000004
:1008E0000000000000FCFC000000000D0D000000F6
:1008F0001E1E001E1E00000000000020FCFCFCFC70
:1009000020010F0F0F0F013048FCFC883006081F34
:100910001F0807183CA4781C0C0C0E07090F0600D2
:10092000B8FC44FCB8070F08070F0900001E1E00A2
:100930000000000000000000E0F81C060200030FA9
:100940001C30200002061CF8E00020301C0F038C35
:1009500050FCFC508C0100010100018080F0F0800F
:1009600080000007070000000000000000000024D5
:100970003C1C00808080808080000000000000001F
:10098000000000000000000C0C00000000C0F03E61
:100990000E383E07010000F8FC0404FCF8070F08BD
:1009A000080F071018FCFC000008080F0F080818B3
:1009B0001C04C4FC380C0E0B090808181C4444FC29
:1009C000B8060E08080F0780C060F8FC0003030299
:1009D0000F0F027C7C2424E4C4060E08080F07F0E5
:1009E000F84C44DC98070F08080F071C1CC4F43CA3
:1009F0000C00000F0F000038FCC4C4FC38070F08BF
:100A0000080F0778FC8484FCF8060E080C07030026
:100A1000003030000000000606000000000030300A
:100A2000000000121E0E0080C06030180800010394
:100A3000060C084040404040400202020202020808
:100A4000183060C080080C06030100181CC4E43C88
:100A50001800000D0D0000F0F8ECF41CF803070D71
:100A60000B0A0BF8FC0C0CFCF80F0F01010F0FFC2C
:100A7000FC4444FC980F0F08080F07F8FC04041C02
:100A800018070F08080E06FCFC040CF8F00F0F08FE
:100A90000C0703FCFC444444040F0F08080808FC3E
:100AA000FC444444040F0F00000000F8FC04849C44
:100AB00098070F08080F07FCFC4040FCFC0F0F00D4
:100AC000000F0F0404FCFC040408080F0F080800C2
:100AD000000000FCFC060E080C0703FCFCF0980C60
:100AE000040F0F01030E0CFCFC000000000F0F08A8
:100AF000080808FCF86060F8FC0F0F00000F0FFCFE
:100B0000FC7080FCFC0F0F00030F0FF8FC0404FCCA
:100B1000F8070F08080F07FCFC8484FC780F0F000F
:100B2000000000F8FC0404FCF8070F090A1F37FC5A
:100B3000FC44C4FC380F0F00000F0F183CE4C41C29
:100B400018060E08090F060404FCFC040400000F3C
:100B50000F0000FCFC0000FCFC070F08080F07FC5E
:100B6000FC0000FCFC01070E0E0701FCFC8080FC71
:100B7000FC070F07070F070C3CF0F03C0C0C0F03B1
:100B8000030F0C1C7CE0E07C1C00000F0F00000435
:100B900004C4F43C0C0C0F0B08080800FEFE020213
:100BA00002003F3F2020200E3EF0C0000000000168
:100BB000073E3800020202FEFE002020203F3F04D4
:100BC000060303060400000000000000000000000F
:100BD000003030303030300002060C0800000000D9
:100BE000000000406020A0E0C0060F09080F0FFCC5
:100BF000FC2020E0C00F0F08080F07C0E020206095
:100C000040070F08080C04C0E02020FCFC070F0878
:100C1000080F0FC0E02020E0C0070F09090D0540B4
:100C200040F8FC4C4800000F0F0000C0E020E0C07E
:100C300060193F2A2B3910FCFC2020E0C00F0F0068
:100C4000000F0F0000ECEC000000000F0F00000090
:100C5000000000ECEC001030203F1FFCFC80C06066
:100C6000000F0F0103060C0000FCFC000000000F49
:100C70000F0000E0E0C0E0E0C00F0F07070F0FE03B
:100C8000E02020E0C00F0F00000F0FC0E02020E0A8
:100C9000C0070F08080F07E0E02020E0C03F3F0832
:100CA000080F07C0E02020E0E0070F08083F3FE002
:100CB000E02020E0C00F0F0000000040E0A0206016
:100CC00040040C090B0E042020FCFC20200000072F
:100CD0000F0808E0E00000E0E0070F08080F0FE051
:100CE000E00000E0E000030F0F0300E0E08080E0A0
:100CF000E0070F07070F0760E08080E0600C0E033D
:100D0000030E0C60E08000E0E01031273E1F012060
:100D10002020A0E0600C0E0B0908080080FC7E0279
:100D20000200001F3F20200000FEFE000000003FE8
:100D30003F00000002027EFC800020203F1F001CBC
:100D4000060C0C180E00000000000000060F09063B
:100D50000000000000000005070000000000000087
:100D60005F00000007000700147F147F14242A7F0F
:100D70002A122313086462364955225000050300E5
:100D800000001C2241000041221C0014083E0814EF
:100D900008083E080800503000000808080808004D
:100DA0006060000020100804023E5149453E0042A8
:100DB0007F400042615149462141454B3118141290
:100DC0007F1027454545393C4A494930017109059D
:100DD000033649494936064949291E00363600007E
:100DE0000056360000081422410014141414140094
:100DF000412214080201510906324979413E7E110F
:100E000011117E7F494949363E414141227F41418E
:100E1000221C7F494949417F090909013E4149494D
:100E20007A7F0808087F00417F41002040413F0150
:100E30007F081422417F404040407F020C027F7FA8
:100E40000408107F3E4141413E7F090909063E41A9
:100E500051215E7F09192946464949493101017FDF
:100E600001013F4040403F1F2040201F3F4038408D
:100E70003F6314081463070870080761514945432C
:100E8000007F41410002040810200041417F00041E
:100E9000020102044040404040000102040020548E
:100EA0005454787F484444383844444420384444B7
:100EB000487F3854545418087E0901020C5252528B
:100EC0003E7F0804047800447D40002040443D00FB
:100ED0007F1028440000417F40007C041804787C87
:100EE0000804047838444444387C14141408081462
:100EF00014187C7C080404084854545420043F44CB
:100F000040203C4040207C1C2040201C3C40304085
:100F10003C44281028440C5050503C4464544C44E9
:100F2000000836410000007F000000413608001034
:100F30000808100806090909060011241FBECFEF92
:100F4000D8E0DEBFCDBF11E0A0E0B1E0E0E9F5E31D
:100F500002C005900D92A431B107D9F723E0A4E1B6
:100F6000B1E001C01D92A435B207E1F70E948817D5
:100F70000C94C61A0C94000080E70E94610A8EEB64
:100F80000E944D0A88E00E944D0A80E00E944D0AAE
:100F90000E94B2098FE19EE40197F1F700C00000C2
:100FA00008959F92AF92BF92CF92DF92EF92FF92FD
:100FB0000F931F93CF93DF93CDB7DEB727970FB66D
:100FC000F894DEBF0FBECDBF6C017B0180E70E94AD
:100FD000610A982E882329F00E948209992493940B
:100FE000B2C081E70E944D0A0E94B20981E70E94C7
:100FF000610A80E00E94DD0A182F0E94B20913FFE7
:101000000E94BC078CEA0E944D0A83E30E944D0AAD
:1010100080E00E944D0A0E94B2092FEF43EF81E069
:10102000215040408040E1F700C0000081E70E946D
:10103000610A00E01FEF17C0A02EB12C81E00E94D2
:10104000DD0AE1E0F0E0EC0FFD1FEA0DFB1D8083FF
:10105000912F982788E021E3990F08F492278A9529
:10106000D9F7192F0F5F063038F380E00E94DD0AB0
:10107000082F0E94B2090E948209101361C02A81C0
:10108000822F90E0A0E0B0E0072E7CE0880F991F4F
:10109000AA1FBB1F7A95D1F7702D2B81E0E12E9FFF
:1010A00090011124A90160E070E0482B592B6A2BB4
:1010B0007B2B1C81812F82958F709A01AB01282B8D
:1010C000AAEFB0E00E94531ADC01CB01072E72E1B7
:1010D000B695A795979587957A95D1F7702DF601D6
:1010E00091838083212F2F70822F90E0A0E0B0E0C9
:1010F000DC01992788272D8130E0322F2227A90192
:1011000060E070E0482B592B6A2B7B2B8E819A0173
:10111000AB01282BAAEFB0E00E94531ADC01CB01EF
:10112000072E71E1B695A795979587957A95D1F792
:10113000702DBC01645F7140F7017183608303C04F
:101140006894992491F8892D27960FB6F894DEBFFC
:101150000FBECDBFDF91CF911F910F91FF90EF9008
:10116000DF90CF90BF90AF909F9008958F929F9205
:10117000AF92BF92CF92DF92EF92FF920F931F93A5
:10118000CF93DF93CDB7DEB728970FB6F894DEBFC5
:101190000FBECDBF5C016B0188EB0E94610A8FE33B
:1011A00096E00197F1F700C000000E94B20988EBB9
:1011B0000E94610A882E882329F00E9482098824CF
:1011C000839474C083E00E944D0A80E00E944D0A1F
:1011D00084E00E944D0A0E94B209EFE7FCE03197DB
:1011E000F1F700C0000089EB0E94610A912CEE2407
:1011F000EA94FE2C27C0092D10E081E00E94DD0A50
:10120000E1E0F0E0EC0FFD1FE00FF11F8083F5E05F
:10121000F915B8F0E8268E2D82958E25082E869534
:1012200086958025082E8695802587700E2CEF2CBC
:10123000869507948795F02CE82606948795F024E8
:10124000E826939486E0891508F0D5CF80E00E94C7
:10125000DD0A182F0E94B2090E948209812F90E0B6
:10126000982F88272F81822BE816F906E1F48B81CD
:1012700090E0982F88272C81822BF5019183808321
:101280002D81822F8F7790E0982F88273E81832BA6
:10129000F6019183808322234CF4919581959109E5
:1012A0009183808303C06894882481F8882D2896D0
:1012B0000FB6F894DEBF0FBECDBFDF91CF911F9167
:1012C0000F91FF90EF90DF90CF90BF90AF909F90E5
:1012D0008F9008958093140108951092BC0010928D
:1012E000B90080E28093B80008958AB18E7F8AB9F0
:1012F0008AB18D7F8AB98BB18E7F8BB98BB18D7F8F
:101300008BB9089580911401882319F00E94750902
:1013100008950E946D09089584E98093BC0088E8CF
:1013200093E102C0019721F02091BC0024FDFACF87
:1013300008958AB182608AB98AB181608AB98DE0E4
:101340008A95F1F700008AB18D7F8AB98DE08A9580
:10135000F1F700008AB18E7F8AB98DE08A95F1F7A6
:101360000000089580911401882319F00E949909C2
:1013700008950E948C0908958093BB0084E88093AF
:10138000BC0088E893E102C0019769F02091BC009D
:101390002223D4F78091B900887F883131F08034DE
:1013A00031F480E0089581E0089580E0089581E0BF
:1013B000089594EA9093BC0028E833E103C02150DB
:1013C000310971F09091BC009923CCF79091B9004C
:1013D000987F983011F0903129F40E94BC0908954B
:1013E00081E0089581E00895CF93DF93D82FC8E07E
:1013F00027C08AB182608AB9DD2324F48AB18E7F46
:101400008AB903C08AB181608AB98DE08A95F1F703
:1014100000008AB18D7F8AB988E893E106C0019700
:1014200021F40E94990981E003C0499BF8CF80E034
:1014300081112DC09DE09A95F1F70000DD0FC1509C
:10144000C111D7CF8AB182608AB98AB18E7F8AB939
:101450008DE08A95F1F700008AB18D7F8AB988E81E
:1014600093E106C0019721F40E94990981E003C02D
:10147000499BF8CF80E081110CC089B181709DE05B
:101480009A95F1F700009AB192609AB903C081E091
:1014900001C081E0DF91CF910895909114019923CB
:1014A00019F00E94F40908950E94BC0908959AB1A8
:1014B00091609AB99DE09A95F1F700000E94F409B5
:1014C000089590911401992319F00E94570A0895E4
:1014D0000E94D9090895882311F084EC01C084E8A2
:1014E0008093BC0088E893E102C0019739F0209115
:1014F000BC002223D4F78091BB0008958FEF08959C
:101500001F93CF93DF93182FD8E0C0E023C0CC0FF8
:101510008AB182608AB98AB18E7F8AB98DE08A9554
:10152000F1F700008AB18D7F8AB98DE08A95F1F7D5
:10153000000088E893E106C0019721F40E94990910
:1015400081E003C0499BF8CF80E081112FC048990A
:10155000C160D150D111DBCF8AB182608AB9112329
:1015600021F08AB181608AB903C08AB18E7F8AB9BD
:101570008DE08A95F1F700008AB18D7F8AB988E8FD
:1015800093E106C0019721F40E94990981E003C00C
:10159000499BF8CF80E081110BC08DE08A95F1F76F
:1015A00000008AB182608AB98C2F03C08FEF01C01E
:1015B0008FEFDF91CF911F9108959091140199239E
:1015C00019F00E94800A08950E946B0A089514BCC5
:1015D00083E085BD16BC81E080936E008FEF87BDF0
:1015E0000895E6EBF0E08081806280831092B20083
:1015F00085E08093B1008091B6008A71E1F781E0C7
:101600008093700078940895E6EBF0E0808180622A
:10161000808381E08093B1008091B6008A71E1F708
:1016200090E88FEF87BB86BB1092B20010928500C6
:10163000109284008091B6008A71E1F781E0809376
:101640008100B99BFECF10928100209184003091DF
:1016500085002138344F10F4B09B07C0E6E6F0E077
:1016600080818150808300000DC0209184003091E2
:1016700085002038334F40F4E6E6F0E080818F5F4C
:1016800080830000915069F608951092800082ECEA
:10169000809381008FEF86BB1092850010928400AA
:1016A00086E280936F0084B1866084B9089580914A
:1016B00030014CE32091310130E0489F200D311D75
:1016C000112450910F0180912B0190E0459F800DD6
:1016D000911D11242817390780F040910E015CE319
:1016E000459F800D911D112440912A01840F911D69
:1016F0002817390720F080E0089580E0089581E000
:101700000895CF93DF93F901681B790BDA012D91CE
:101710003C91DC01A21BB30BEA01998388834091C1
:10172000080150E0440F551F649F9001659F300DE4
:10173000749F300D112480819181820F931F9183BA
:101740008083409109014A9F90014B9F300D1124E5
:10175000821B930B9183808399233CF08938D3E1DA
:101760009D072CF088E893E102C080E090E091832F
:1017700080832091070126952A9FA0012B9F500D61
:101780001124841B950B64E670E00E94301A7723C5
:101790003CF0CB01633371052CF082E390E002C092
:1017A00080E090E0DF91CF91089585E190E00E9484
:1017B000901A853509F086C084E190E00E94901A65
:1017C0008093380183E190E00E94901A8093370162
:1017D00082E190E00E94901A91E0811101C090E0B6
:1017E0009093120181E190E00E94901A91E08111A2
:1017F00001C090E09093110180E190E00E94901A66
:1018000091E0811101C090E0909336018FE090E06B
:101810000E94901A91E0811101C090E090933501EF
:101820008CE090E00E94901A80930F018DE090E090
:101830000E94901A80932B018AE090E00E94901AF7
:1018400080930E018BE090E00E94901A80932A0111
:1018500088E090E00E94981A90930D0180930C010B
:1018600086E090E00E94981A90930B0180930A0101
:1018700085E090E00E94901A8093090184E090E056
:101880000E94901A8093080183E090E00E94901AD1
:101890008093070182E090E00E94901A80930601F5
:1018A00081E090E00E94901A8093050180E090E032
:1018B0000E94901A809304018EE090E00E94901A9A
:1018C000809310010895CF92DF92EF92FF920F93D1
:1018D0001F93CF93DF938C01EB01C22EFC01992360
:1018E00024F4EE27FF27E81BF90B4111C39450E0C5
:1018F000DD24D394D50E7E01E50EF11C9F01ADECE5
:10190000BCEC0E94441A9695879596958795969576
:1019100087959C01220F331F880F991F880F991FED
:10192000880F991F820F931F9F01281B390BC90134
:10193000805DD7018C934D1107C05E5FDE01AD0D58
:10194000B11D8EE28C9301C05D2D9F01ADECBCEC0E
:101950000E94441AFC01F695E795F695E795F695F1
:10196000E795309729F6541718F206C0FE01E50FE7
:10197000F11D80E380835F5F5C15C0F3112334F4B5
:10198000FE01E50FF11D8DE280835F5FFE01E50F33
:10199000F11D1082CE010E94801ADF91CF911F911C
:1019A0000F91FF90EF90DF90CF900895CF9390E04C
:1019B00010C0292F30E0F901EF5BFE4F80818823B2
:1019C00039F0F901EF5BFE4F108284E0891B30C1D2
:1019D0009F5F943070F30E94CF188091380121E00E
:1019E00040E067E471E090E00E94630C60E00E94D8
:1019F0000C1A60E08FE20E9465198091370121E0A6
:101A000040E067E471E090E00E94630C60E00E94B7
:101A10000C1A0E94570B882341F060E08AE20E9472
:101A2000181960E08AE20E94651960E086E30E946E
:101A300018198091300122E040E067E471E090E005
:101A40000E94630C8091320180FF02C08AE301C0D2
:101A500080E2809349018091310122E040E06AE414
:101A600071E090E00E94630C60E087E491E00E94E6
:101A70000C1A80912C01813009F47EC085ED98E02C
:101A80000E94131968E080E00E94181980912D01CE
:101A9000882339F061E271E087E491E00E94721AD4
:101AA0000AC022E041E067E471E080915601909124
:101AB00057010E94630C60E00E940C1A60E08FE204
:101AC0000E94651980912C01882339F06EE171E044
:101AD00087E491E00E94721A0AC022E041E067E4C4
:101AE00071E080913D0190913E010E94630C60E0A5
:101AF0000E940C1A60E08AE191E00E941D1A809118
:101B00002D01882339F067E171E087E491E00E94BC
:101B1000721A0AC022E041E067E471E08091450159
:101B2000909146010E94630C60E00E940C1A60E0F4
:101B30008FE20E94651980912C01882339F064E1BD
:101B400071E087E491E00E94721A0AC022E041E04D
:101B500067E471E080913F01909140010E94630C25
:101B600060E00E940C1A60E085E20E94651987E53A
:101B70009DE00E94131950C0C0912D01C13009F49D
:101B800040C020F0C23009F442C046C083E591E075
:101B90000E941319809156019091570199230CF0DE
:101BA000CCE068E08C2F0E94181922E041E067E445
:101BB00071E080915601909157010E94630C60E0A2
:101BC0000E940C1A60E081E191E00E941D1A68E118
:101BD0008CE00E94181922E041E067E471E08091F6
:101BE0004501909146010E94630C60E00E940C1A2E
:101BF00060E085E20E94651987E59DE00E94131967
:101C00000BC060E084E091E00E941D1A05C060E016
:101C100089EF90E00E941D1A68E280E00E94181986
:101C200060E08AEE90E00E941D1A0E941D1980E07B
:101C3000CF91089565E585E190E00E949E1A60913C
:101C4000120182E190E00E949E1A6091380184E1C5
:101C500090E00E949E1A6091360180E190E00E941F
:101C60009E1A6091110181E190E00E949E1A60919C
:101C7000370183E190E00E949E1A609135018FE068
:101C800090E00E949E1A60910F018CE090E00E940B
:101C90009E1A60912B018DE090E00E949E1A609147
:101CA0000E018AE090E00E949E1A60912A018BE06A
:101CB00090E00E949E1A60910C0170910D0188E0E5
:101CC00090E00E94B01A60910A0170910B0186E0C9
:101CD00090E00E94B01A6091090185E090E00E94B6
:101CE0009E1A6091080184E090E00E949E1A609123
:101CF000070183E090E00E949E1A6091060182E055
:101D000090E00E949E1A6091050181E090E00E949F
:101D10009E1A6091040180E090E00E949E1A6091FA
:101D200010018EE090E00E949E1A08958091340187
:101D3000882379F0E7E4F1E001900020E9F731979A
:101D4000AF014754514060E270E087E491E00E94A7
:101D5000791A0895CF9380914401882361F01092FD
:101D60004401C0911901CC2319F01092190103C04C
:101D70000E941A0EB3C280914301882371F1109220
:101D8000430180911901843038F48230D0F48823E3
:101D900031F0813061F021C08630E8F01EC08091C2
:101DA00003018093190181E08093180116C080918E
:101DB00018018F5F80931801843078F01092190118
:101DC0000CC0809118018F5F80931801833028F038
:101DD0001092190102C010921901809142018823CA
:101DE00009F498C01092420180911901823009F4DF
:101DF00040C028F4882361F08130A9F08BC0843082
:101E000009F46AC008F44FC0853009F473C082C079
:101E10008091030181508093030181117BC085E093
:101E20008093030177C080911801813049F490912B
:101E300030019F5F90933001983110F01092300183
:101E4000823049F4909131019F5F909331019C332E
:101E500010F010923101833009F05CC080913201A2
:101E60008F5F809332018C3308F454C0109232019A
:101E700051C080911801813049F490910F019F5F0A
:101E800090930F01983110F010920F01823009F0F9
:101E900041C080912B018F5F80932B018C33D0F157
:101EA00010922B0137C080911801813049F4909134
:101EB0000E019F5F90930E01983110F010920E0169
:101EC000823041F580912A018F5F80932A018C3303
:101ED00008F110922A011EC080910C0190910D0111
:101EE000803223E09207B4F4059690930D0180931D
:101EF0000C0110C080910C0190910D018032934033
:101F00004CF480910A0190910B01059690930B017E
:101F100080930A0180914101882309F4A0C01092A6
:101F2000410180911901823009F444C028F48823CA
:101F300061F08130B1F093C0843009F472C008F4CC
:101F400055C0853009F47BC08AC0809103018F5F42
:101F500080930301863008F482C081E080930301FE
:101F60007EC080911801813051F4909130019150E0
:101F700090933001983118F097E1909330018230BE
:101F800051F4909131019150909331019C3318F0AC
:101F90009BE390933101833009F061C0809132015D
:101FA0008150809332018C3308F459C08BE38093C5
:101FB000320155C080911801813051F490910F0188
:101FC000915090930F01983118F097E190930F0181
:101FD000823009F044C080912B01815080932B0105
:101FE0008C33E8F18BE380932B0139C08091180189
:101FF000813051F490910E01915090930E019831DF
:1020000018F097E190930E01823049F580912A01F2
:10201000815080932A018C3310F18BE380932A0145
:102020001EC080910C0190910D0181372EEF920717
:10203000B4F0059790930D0180930C0110C080912E
:102040000C0190910D0181379E4F4CF080910A0157
:1020500090910B01059790930B0180930A010E94C8
:10206000CF1880910301C1E0813009F0C0E06C2FEE
:1020700084EE90E00E941D1A48E050E060E270E0BB
:1020800087E491E00E94791A80911901813041F42E
:1020900080911801813021F480913401811109C0AF
:1020A0008091300122E040E067E471E090E00E941E
:1020B000630C8AE38093490180911901813041F4D6
:1020C00080911801823021F480913401811109C07E
:1020D0008091310122E040E06AE471E090E00E94EA
:1020E000630C8AE380934C0180911901813041F4A3
:1020F00080911801833021F480913401811109C04D
:102100008091320122E040E06DE471E090E00E94B5
:10211000630C10924F016C2F87E491E00E940C1A1F
:1021200080910301C1E0823009F0C0E06C2F8CED9A
:1021300090E00E941D1A48E050E060E270E087E401
:1021400091E00E94791A80911901823041F48091C6
:102150001801813021F480913401811109C08091EE
:102160000F0122E040E067E471E090E00E94630C20
:102170008AE38093490180911901823041F4809172
:102180001801823021F480913401811109C08091BD
:102190002B0122E040E06AE471E090E00E94630CD1
:1021A00010924C016C2F87E491E00E940C1A8091F0
:1021B0000301C1E0833009F0C0E06C2F83ED90E0B3
:1021C0000E941D1A45E050E060E270E087E491E073
:1021D0000E94791A80911901833041F4809118018D
:1021E000813021F480913401811109C080910E0168
:1021F00022E040E067E471E090E00E94630C8AE333
:102200008093490180911901833041F48091180134
:10221000823021F480913401811109C080912A011A
:1022200022E040E06AE471E090E00E94630C1092CA
:102230004C016C2F87E491E00E940C1A80910301FD
:10224000C1E0843009F0C0E06C2F88EC90E00E947F
:102250001D1A22E041E067E471E080910C01909149
:102260000D010E94630C80911901843011F40E94C9
:10227000960E6C2F87E491E00E940C1A8091030166
:10228000C1E0853009F0C0E060E280E00E941819EA
:102290006C2F8EEB90E00E941D1A22E041E067E473
:1022A00071E080910A0190910B010E94630C809172
:1022B0001901853011F40E94960E6C2F87E491E08D
:1022C0000E940C1A68E280E00E94181960E080E326
:1022D00091E00E941D1A0E941D19C1E08C2FCF9120
:1022E0000895CF9380914401882361F010924401B6
:1022F000C0911701CC2319F01092170103C00E945E
:102300001A0E18C280914301882361F01092430194
:1023100080911701811103C08091020101C080E00A
:102320008093170180914201882309F49AC010928A
:10233000420180911701823009F443C028F48823B8
:1023400061F08130A9F08DC0843009F472C008F4C6
:1023500048C0853009F47CC084C08091020181505E
:102360008093020181117DC085E08093020179C0D4
:1023700080911201882329F01092120110923801E5
:1023800070C080913601882341F0909138019111FD
:1023900004C082E38093380164C0882321F08091D7
:1023A0003801811108C0809138018F5F8093380116
:1023B000833308F456C081E08093120110923801F3
:1023C00050C09091360181E089278093360188239F
:1023D00009F447C080913801811182E3809338016C
:1023E00040C080911101882329F0109211011092B0
:1023F000370137C080913501882341F09091370132
:10240000911104C082E3809337012BC0882321F00F
:1024100080913701811107C0809137018F5F8093D0
:1024200037018333F0F081E080931101109237017E
:1024300018C09091350181E0892780933501882368
:1024400081F080913701811182E38093370109C0C7
:10245000809110018F5F80931001833310F01092F0
:10246000100180914101882309F49DC0109241011F
:1024700080911701823009F444C028F4882361F068
:102480008130B1F090C0843009F474C008F449C0C0
:10249000853009F47EC087C0809102018F5F8093F0
:1024A0000201863008F47FC081E0809302017BC086
:1024B00080911201882331F01092120182E38093FF
:1024C000380171C080913601882339F0909138012C
:1024D000992319F01092380166C0882321F0809169
:1024E0003801882341F0809138019FEF980F909335
:1024F0003801811158C081E0809312011092380197
:1025000052C09091350181E089278093350188235D
:1025100009F449C080913701811182E3809337012A
:1025200042C080911101882331F01092110182E3A1
:102530008093370138C080913501882339F090911C
:102540003701992319F0109237012DC0882321F00B
:1025500080913701882341F0809137019FEF980FD8
:102560009093370181111FC081E080931101109277
:10257000370119C09091350181E089278093350199
:10258000882389F080913701811182E3809337019C
:102590000AC080911001815080931001833318F09C
:1025A00082E3809310010E94CF1880910201C1E064
:1025B000813009F0C0E06C2F88EB90E00E941D1A7A
:1025C00080911201882339F06EE471E087E491E094
:1025D0000E94721A09C08091380121E040E067E44E
:1025E00071E090E00E94630C80911701813011F43A
:1025F0000E94960E6C2F87E491E00E940C1A809145
:102600000201C1E0823009F0C0E06C2F81EB90E064
:102610000E941D1A80913601882319F067E471E049
:1026200002C06FE371E087E491E00E94721A80912A
:102630001701823011F40E94960E6C2F87E491E00E
:102640000E940C1A80910201C1E0833009F0C0E0C1
:102650006C2F8AEA90E00E941D1A80911101882354
:1026600039F06EE471E087E491E00E94721A09C0CB
:102670008091370121E040E067E471E090E00E9442
:10268000630C80911701833011F40E94960E6C2F19
:1026900087E491E00E940C1A80910201C1E084302D
:1026A00009F0C0E06C2F83EA90E00E941D1A80912F
:1026B0003501882319F067E471E002C06FE371E02F
:1026C00087E491E00E94721A80911701843011F41E
:1026D0000E94960E6C2F87E491E00E940C1A809164
:1026E0000201C1E0853009F0C0E06C2F87E990E07D
:1026F0000E941D1A8091100121E040E067E471E022
:1027000090E00E94630C80911701853011F40E94C3
:10271000960E6C2F87E491E00E940C1A68E280E02C
:102720000E94181960E080E391E00E941D1A0E9447
:102730001D19C2E08C2FCF910895CF938091440151
:10274000882361F010924401C0911601CC2319F046
:102750001092160103C00E941A0E15C18091430108
:10276000882361F01092430180911601811103C00A
:102770008091010101C080E08093160180914201A7
:102780008823B9F110924201809116018230E1F064
:1027900028F4882341F0813089F02BC08330D1F0B8
:1027A0008430F1F026C080910101815080930101B5
:1027B00081111FC084E0809301011BC08091090139
:1027C0008F5F8093090115C0809108018F5F80930E
:1027D00008010FC0809107018F5F8093070109C036
:1027E000809106018F5F809306018C3310F0109268
:1027F0000601809141018823C1F11092410180912D
:1028000016018230E1F028F4882341F0813089F00C
:102810002CC08330D1F08430F1F027C080910101C9
:102820008F5F80930101853000F181E08093010189
:102830001CC08091090181508093090116C08091CC
:10284000080181508093080110C0809107018150D8
:10285000809307010AC08091060181508093060190
:102860008C3318F08BE3809306010E94CF1880917F
:102870000101C1E0813009F0C0E06C2F83E990E0F4
:102880000E941D1A8091090123E042E067E471E093
:1028900090E00E94630C80911601813011F40E9437
:1028A000960E6C2F87E491E00E940C1A8091010132
:1028B000C1E0823009F0C0E06C2F8EE890E00E9409
:1028C0001D1A8091080123E042E067E471E090E086
:1028D0000E94630C80911601823011F40E94960EC2
:1028E0006C2F87E491E00E940C1A80910101C1E0F5
:1028F000833009F0C0E06C2F89E890E00E941D1A37
:102900008091070123E042E067E471E090E00E94DB
:10291000630C80911601833011F40E94960E6C2F87
:1029200087E491E00E940C1A80910101C1E084309B
:1029300009F0C0E06C2F84E890E00E941D1A80919D
:10294000060121E040E067E471E090E00E94630C42
:1029500080911601843011F40E94960E6C2F87E44A
:1029600091E00E940C1A6C2F83E70E94651968E2BF
:1029700080E00E94181960E080E391E00E941D1A37
:102980000E941D19C3E08C2FCF910895CF938091A1
:102990004401882361F010924401C0911501CC23B9
:1029A00019F01092150103C00E941A0ED5C0809133
:1029B0004301882361F01092430180911501811138
:1029C00003C08091000101C080E0809315018091D7
:1029D0004201882369F110924201809115018130F2
:1029E00079F018F08230B1F023C08091000181505D
:1029F0008093000181111CC082E08093000118C007
:102A0000809105018F5F80930501833088F01092DB
:102A100005010EC0809104018F5F809304018B3506
:102A200018F08AE580930401809104010E94DE1869
:102A300080914101882379F1109241018091150123
:102A4000813079F018F08230C1F025C0809100010A
:102A50008F5F809300018330F0F081E0809300016C
:102A60001AC0809105019FEF980F90930501811185
:102A700012C082E0809305010EC080910401815054
:102A8000809304018E3118F48EE1809304018091CB
:102A900004010E94DE180E94CF1880910001C1E05D
:102AA000813009F0C0E06C2F89E790E00E941D1A88
:102AB00080910501813039F466E770E087E491E0A8
:102AC0000E94721A0FC0823039F46EE471E087E41C
:102AD00091E00E94721A06C062E770E087E491E01C
:102AE0000E94721A80911501813011F40E94960E95
:102AF0006C2F87E491E00E940C1A80910001C1E0E4
:102B0000823009F0C0E068E080E00E9418196C2F64
:102B100088E690E00E941D1A8091040121E040E0C7
:102B200067E471E090E00E94630C809115018230AF
:102B300011F40E94960E6C2F87E491E00E940C1A0B
:102B400068E280E00E94181960E080E391E00E9452
:102B50001D1A0E941D19C4E08C2FCF9108951F9259
:102B60000F920FB60F9211242F934F935F938F9371
:102B70009F93EF93FF93809128018F5F80932801AB
:102B8000811106C09091340181E08927809334013E
:102B900087B590912901981708F48150891708F496
:102BA0008F5F882311F093E801C090E094BD87BD4A
:102BB00020E041C086B1422F50E090E0022E02C0DA
:102BC000959587950A94E2F780FD0EC0FA01EC5DB9
:102BD000FE4F80818F5F808381110EC081E0FA01FA
:102BE000E05EFE4F808308C0FA01EC5DFE4F10826C
:102BF000FA01E05EFE4F1082FA01EC5DFE4F80812B
:102C00008A3041F0FA01E05EFE4F9081992391F005
:102C10008A3881F480913301811104C080910501CB
:102C2000823029F0FA01EF5BFE4F81E080838EE174
:102C3000809333012F5F243008F4BCCFFF91EF91D4
:102C40009F918F915F914F912F910F900FBE0F9099
:102C50001F9018951F920F920FB60F9211248F9309
:102C6000809132018F5F809332018C33A0F01092FB
:102C70003201809131018F5F809331018C3358F0A4
:102C800010923101809130018F5F80933001883143
:102C900010F01092300180913301882329F0809147
:102CA000330181508093330180912F01882329F0D3
:102CB00080912F01815080932F0180912E018823D4
:102CC00029F080912E01815080932E018F910F90D9
:102CD0000FBE0F901F9018951F920F920FB60F9274
:102CE00011242F933F934F935F936F937F938F9311
:102CF0009F93AF93BF93EF93FF938091810086FFE3
:102D00008AC0E6E8F0E02081318180911E01909137
:102D10001F01281B390B36952795ABE7B4E10E94BC
:102D2000441ABC017695679570931D0160931C0150
:102D30008081918120911A0130911B01280F391F48
:102D40008091380142E350E0FA01E81BF109E69F67
:102D5000C001E79F900DF69F900D1124820F931FE5
:102D6000909389008093880080913701481B510916
:102D700060911C0170911D01469FC001479F900DFD
:102D8000569F900D1124280F391F30938B002093EC
:102D90008A008091380120911C0130911D01829F91
:102DA000A001839F500D112450933C0140933B019F
:102DB000823351F460911A0170911B01460F571F25
:102DC00050933C0140933B0190913701929FA001A9
:102DD000939F500D112450933A014093390192333F
:102DE00051F420911A0130911B01420F531F50934F
:102DF0003A0140933901882311F020EC01C020E012
:102E0000992311F080E301C080E0822B8093800041
:102E10008FEF86BB10C08091860090918700209133
:102E20001E0130911F01821B930B969587959093FD
:102E30001B0180931A01E1E8F0E0908180E489278A
:102E40008083809186009091870090931F018093EA
:102E50001E01FF91EF91BF91AF919F918F917F9153
:102E60006F915F914F913F912F910F900FBE0F90F7
:102E70001F9018951F920F920FB60F9211242F9347
:102E80003F938F939F93EF93FF93E0E8F0E080816F
:102E90008F7B8083E8E8F0E02081318180913B01E5
:102EA00090913C01820F931F91838083FF91EF915A
:102EB0009F918F913F912F910F900FBE0F901F9078
:102EC00018951F920F920FB60F9211242F933F93D4
:102ED0008F939F93EF93FF93E0E8F0E080818F7EE4
:102EE0008083EAE8F0E0208131818091390190917E
:102EF0003A01820F931F91838083FF91EF919F91FD
:102F00008F913F912F910F900FBE0F901F901895AA
:102F1000CF93DF93CDB7DEB728970FB6F894DEBF17
:102F20000FBECDBF1A8219821C821B821E821D8297
:102F300018861F820E9482090E94D50B0E949B184E
:102F400087E59DE00E9413198BB180648BB960E026
:102F500084E291E00E941D1A0E941D190E94040B38
:102F60000E94CF180E941D1988B18F6088B90E94F5
:102F7000E70A0E94450B0E94F10A8BB18F7B8BB947
:102F8000E12C10E0111103C00E94D60C182F113053
:102F900019F40E94AA0E182F123019F40E94711110
:102FA000182F133019F40E949D13182F143019F4A0
:102FB0000E94C614182F80910501813039F08230AB
:102FC00039F480913301811105C005C08FEF03C032
:102FD00080E001C08FEF8093290180912F01811142
:102FE000D1CF8091060180932F010E94570B882337
:102FF00029F0C0900A01D0900B0104C0C0900C01D0
:10300000D0900D0180E00E946A0966E571E085E4D8
:1030100091E00E94D10780932D01813041F466E553
:1030200071E085E491E00E94B60880932D019E0135
:103030002B5F3F4FAE014F5F5F4FB601809156014E
:10304000909157010E94810BF82E809110018F15ED
:1030500010F402E301C000E0E01621F08EE180935D
:103060002E01E02E80911201882389F080912D019C
:1030700081110DC080913601882339F080912E0195
:10308000811105C00093380102C0F092380181E03F
:103090000E946A096DE371E08FE391E00E94D1071D
:1030A00080932C01813041F46DE371E08FE391E076
:1030B0000E94B60880932C0180912C01811115C0CB
:1030C0009E01295F3F4FAE014D5F5F4FB60180917A
:1030D0003D0190913E010E94810BF82E80911001DC
:1030E0008F1510F402E301C000E0809111018823E4
:1030F00009F448CF80912D01882321F080912C0183
:10310000811140CF80913501882339F080912E01C3
:10311000811138CF0093370135CFF092370132CF8C
:103120009BB19F759BB98EBD0DB407FEFDCF8BB1D2
:1031300080688BB9089584B18C6284B98AB1886F34
:103140008AB98BB188608BB98CB580658CBD8BB129
:1031500080698BB98FEC97E00197F1F700C0000010
:103160008BB18F7E8BB98FEC97E00197F1F700C0A0
:1031700000008BB180618BB981E20E94901884E1DC
:103180000E94901886E00E9490188CEB0E94901884
:1031900080E20E9490188CE00E949018089510928E
:1031A000530310925A0188EF91E0EBE5F1E0DF0163
:1031B0009C011D9221503040E1F70895CF93C82F14
:1031C00081E20E9490188C2F80680E94901880E203
:1031D0000E949018CF910895262F26952695269522
:1031E00090E034E5239F800D911D1124883F21E05C
:1031F0009207C0F4677021E030E002C0220F331F55
:103200006A95E2F7442339F0FC01E55AFE4F8081CC
:10321000282B20830895FC01E55AFE4F20958081DC
:10322000282320830895909359018093580108958D
:103230008093530360935A01089580E80E94901888
:1032400080E40E9490188BB18F778BB98BB180622C
:103250008BB980E090E009C0FC01E55AFE4F208167
:103260002EBD0DB407FEFDCF0196883F21E09207E9
:1032700098F38BB180688BB908951F93CF93DF9338
:10328000162FC42F08C0D1E0D80F41E0612F0E9453
:10329000EC18C1508D2FC111F6CFDF91CF911F9146
:1032A00008951F93CF93DF93182FC42F08C0D1E048
:1032B000D60F41E0812F0E94EC18C1506D2FC11133
:1032C000F6CFDF91CF911F910895BF92CF92DF92F9
:1032D000EF92FF920F931F93CF93DF93E0915801EA
:1032E000F09159019F012F5F3F4FB4908F010E5F06
:1032F0001F4FF901D4908A3049F410925303809102
:103300005A01D80ED394D0925A0174C090E080979D
:103310004D2D50E0495F5F4F9A0112F4295F3F4FF6
:10332000C62E359527953595279535952795829FF6
:10333000A001839F500D929F500D1124EB2CF12C76
:103340004E9DF0014F9DF00D5E9DF00D11240E0F6E
:103350001F1FD0E028C08C2F8695869586958E9D60
:10336000F0018F9DF00D1124E00FF11FE491C110C9
:10337000E0958C2F877041E050E002C0440F551F4C
:103380008A95E2F74E2360915A016C0F80915303A6
:103390008D0F0E94EC18CF5F01C0C0E0CD15D8F2B0
:1033A000DF5F0F5F1F4FDB15C0F3CC2091F0609102
:1033B0005A016D0D41E04B0D809153030E943D1960
:1033C0008091530341E04D0D60915A018B0D0E9495
:1033D000511980915303B80E81E08B0D80935303F4
:1033E000843540F01092530380915A01D80ED39443
:1033F000D0925A0180915A01803320F010925303E9
:1034000010925A01DF91CF911F910F91FF90EF9091
:10341000DF90CF90BF9008951F93CF93DF93EC017F
:10342000162F04C02196612F0E9465198881811191
:10343000F9CFDF91CF911F9108951F93CF93DF9321
:10344000FC01162F04C0612F0E946519FE01EF01D7
:10345000219684918111F7CFDF91CF911F9108952B
:1034600097FB072E16F4009407D077FD09D00E9431
:103470005E1A07FC05D03EF4909581959F4F089504
:10348000709561957F4F0895A29FB001B39FC001D1
:10349000A39F700D811D1124911DB29F700D811D80
:1034A0001124911D08950E94441AA59F900DB49F68
:1034B000900DA49F800D911D11240895AA1BBB1B84
:1034C00051E107C0AA1FBB1FA617B70710F0A61B24
:1034D000B70B881F991F5A95A9F780959095BC0145
:1034E000CD010895FB01DC0105900D920020E1F76C
:1034F0000895DC0101C06D9341505040E0F70895FC
:10350000DC01FC01672F71917723E1F7329704C04A
:103510007C916D9370836291AE17BF07C8F30895D5
:10352000F999FECF92BD81BDF89A992780B508958B
:10353000A8E1B0E042E050E00C94B81A262FF999C7
:10354000FECF92BD81BDF89A019700B4021639F002
:103550001FBA20BD0FB6F894FA9AF99A0FBE0895D3
:103560000196272F0E949F1A0C949E1ADC01CB0112
:10357000FC01F999FECF06C0F2BDE1BDF89A319683
:1035800000B40D9241505040B8F70895F894FFCF21
:10359000010101013C02020A015AFA00C8000A08AE
:0435A0000F01010016
:00000001FF
